{
  "contractName": "ToDoList",
  "abi": [
    {
      "inputs": [],
      "name": "taskCount",
      "outputs": [
        {
          "internalType": "uint256",
          "name": "",
          "type": "uint256"
        }
      ],
      "stateMutability": "view",
      "type": "function",
      "constant": true
    }
  ],
  "bytecode": "0x60806040525f8055348015610012575f80fd5b5060ac8061001f5f395ff3fe6080604052348015600e575f80fd5b50600436106026575f3560e01c8063b6cb58a514602a575b5f80fd5b60306044565b604051603b9190605f565b60405180910390f35b5f5481565b5f819050919050565b6059816049565b82525050565b5f60208201905060705f8301846052565b9291505056fea2646970667358221220eaaf8a831d2dd6ecdc2434f3d2eeceda3bce4d19790978fc860231dc48807b7964736f6c63430008140033",
  "immutableReferences": {},
  "source": "pragma solidity ^0.8.19;\r\n\r\ncontract ToDoList{\r\n    uint public taskCount = 0;\r\n}",
  "sourcePath": "C:\\Users\\TENSH_KKT\\Documents\\ToDoChain\\contracts\\ToDoList.sol",
  "compiler": {
    "name": "solc",
    "version": "0.8.20+commit.a1b79de6.Emscripten.clang"
  },
  "schemaVersion": "3.4.14",
  "updatedAt": "2023-06-27T17:40:30.212Z",
  "networkType": "ethereum",
  "devdoc": {
    "kind": "dev",
    "methods": {},
    "version": 1
  },
  "userdoc": {
    "kind": "user",
    "methods": {},
    "version": 1
  }
}