{
  "contractName": "ToDoList",
  "abi": [
    {
      "inputs": [],
      "stateMutability": "nonpayable",
      "type": "constructor"
    },
    {
      "inputs": [],
      "name": "taskCount",
      "outputs": [
        {
          "internalType": "uint256",
          "name": "",
          "type": "uint256"
        }
      ],
      "stateMutability": "view",
      "type": "function",
      "constant": true
    },
    {
      "inputs": [
        {
          "internalType": "uint256",
          "name": "",
          "type": "uint256"
        }
      ],
      "name": "tasks",
      "outputs": [
        {
          "internalType": "uint256",
          "name": "id",
          "type": "uint256"
        },
        {
          "internalType": "string",
          "name": "content",
          "type": "string"
        },
        {
          "internalType": "bool",
          "name": "completed",
          "type": "bool"
        }
      ],
      "stateMutability": "view",
      "type": "function",
      "constant": true
    },
    {
      "inputs": [
        {
          "internalType": "string",
          "name": "_content",
          "type": "string"
        }
      ],
      "name": "createTask",
      "outputs": [],
      "stateMutability": "nonpayable",
      "type": "function"
    }
  ],
  "bytecode": "0x6080604052600080553480156200001557600080fd5b506200005c6040518060400160405280601a81526020017f57656c636f6d6520746f20546f446f436861696e2041707020210000000000008152506200006260201b60201c565b620004d4565b600080815480929190620000769062000130565b919050555060405180606001604052806000548152602001828152602001600015158152506001600080548152602001908152602001600020600082015181600001556020820151816001019081620000d09190620003ed565b5060408201518160020160006101000a81548160ff02191690831515021790555090505050565b7f4e487b7100000000000000000000000000000000000000000000000000000000600052601160045260246000fd5b6000819050919050565b60006200013d8262000126565b91507fffffffffffffffffffffffffffffffffffffffffffffffffffffffffffffffff8203620001725762000171620000f7565b5b600182019050919050565b600081519050919050565b7f4e487b7100000000000000000000000000000000000000000000000000000000600052604160045260246000fd5b7f4e487b7100000000000000000000000000000000000000000000000000000000600052602260045260246000fd5b60006002820490506001821680620001ff57607f821691505b602082108103620002155762000214620001b7565b5b50919050565b60008190508160005260206000209050919050565b60006020601f8301049050919050565b600082821b905092915050565b6000600883026200027f7fffffffffffffffffffffffffffffffffffffffffffffffffffffffffffffffff8262000240565b6200028b868362000240565b95508019841693508086168417925050509392505050565b6000819050919050565b6000620002ce620002c8620002c28462000126565b620002a3565b62000126565b9050919050565b6000819050919050565b620002ea83620002ad565b62000302620002f982620002d5565b8484546200024d565b825550505050565b600090565b620003196200030a565b62000326818484620002df565b505050565b5b818110156200034e57620003426000826200030f565b6001810190506200032c565b5050565b601f8211156200039d5762000367816200021b565b620003728462000230565b8101602085101562000382578190505b6200039a620003918562000230565b8301826200032b565b50505b505050565b600082821c905092915050565b6000620003c260001984600802620003a2565b1980831691505092915050565b6000620003dd8383620003af565b9150826002028217905092915050565b620003f8826200017d565b67ffffffffffffffff81111562000414576200041362000188565b5b620004208254620001e6565b6200042d82828562000352565b600060209050601f83116001811462000465576000841562000450578287015190505b6200045c8582620003cf565b865550620004cc565b601f19841662000475866200021b565b60005b828110156200049f5784890151825560018201915060208501945060208101905062000478565b86831015620004bf5784890151620004bb601f891682620003af565b8355505b6001600288020188555050505b505050505050565b61089b80620004e46000396000f3fe608060405234801561001057600080fd5b50600436106100415760003560e01c8063111002aa146100465780638d97767214610062578063b6cb58a514610094575b600080fd5b610060600480360381019061005b9190610362565b6100b2565b005b61007c600480360381019061007791906103e1565b610143565b60405161008b939291906104b7565b60405180910390f35b61009c610202565b6040516100a991906104f5565b60405180910390f35b6000808154809291906100c49061053f565b91905055506040518060600160405280600054815260200182815260200160001515815250600160008054815260200190815260200160002060008201518160000155602082015181600101908161011c9190610793565b5060408201518160020160006101000a81548160ff02191690831515021790555090505050565b600160205280600052604060002060009150905080600001549080600101805461016c906105b6565b80601f0160208091040260200160405190810160405280929190818152602001828054610198906105b6565b80156101e55780601f106101ba576101008083540402835291602001916101e5565b820191906000526020600020905b8154815290600101906020018083116101c857829003601f168201915b5050505050908060020160009054906101000a900460ff16905083565b60005481565b6000604051905090565b600080fd5b600080fd5b600080fd5b600080fd5b6000601f19601f8301169050919050565b7f4e487b7100000000000000000000000000000000000000000000000000000000600052604160045260246000fd5b61026f82610226565b810181811067ffffffffffffffff8211171561028e5761028d610237565b5b80604052505050565b60006102a1610208565b90506102ad8282610266565b919050565b600067ffffffffffffffff8211156102cd576102cc610237565b5b6102d682610226565b9050602081019050919050565b82818337600083830152505050565b6000610305610300846102b2565b610297565b90508281526020810184848401111561032157610320610221565b5b61032c8482856102e3565b509392505050565b600082601f8301126103495761034861021c565b5b81356103598482602086016102f2565b91505092915050565b60006020828403121561037857610377610212565b5b600082013567ffffffffffffffff81111561039657610395610217565b5b6103a284828501610334565b91505092915050565b6000819050919050565b6103be816103ab565b81146103c957600080fd5b50565b6000813590506103db816103b5565b92915050565b6000602082840312156103f7576103f6610212565b5b6000610405848285016103cc565b91505092915050565b610417816103ab565b82525050565b600081519050919050565b600082825260208201905092915050565b60005b8381101561045757808201518184015260208101905061043c565b60008484015250505050565b600061046e8261041d565b6104788185610428565b9350610488818560208601610439565b61049181610226565b840191505092915050565b60008115159050919050565b6104b18161049c565b82525050565b60006060820190506104cc600083018661040e565b81810360208301526104de8185610463565b90506104ed60408301846104a8565b949350505050565b600060208201905061050a600083018461040e565b92915050565b7f4e487b7100000000000000000000000000000000000000000000000000000000600052601160045260246000fd5b600061054a826103ab565b91507fffffffffffffffffffffffffffffffffffffffffffffffffffffffffffffffff820361057c5761057b610510565b5b600182019050919050565b7f4e487b7100000000000000000000000000000000000000000000000000000000600052602260045260246000fd5b600060028204905060018216806105ce57607f821691505b6020821081036105e1576105e0610587565b5b50919050565b60008190508160005260206000209050919050565b60006020601f8301049050919050565b600082821b905092915050565b6000600883026106497fffffffffffffffffffffffffffffffffffffffffffffffffffffffffffffffff8261060c565b610653868361060c565b95508019841693508086168417925050509392505050565b6000819050919050565b600061069061068b610686846103ab565b61066b565b6103ab565b9050919050565b6000819050919050565b6106aa83610675565b6106be6106b682610697565b848454610619565b825550505050565b600090565b6106d36106c6565b6106de8184846106a1565b505050565b5b81811015610702576106f76000826106cb565b6001810190506106e4565b5050565b601f82111561074757610718816105e7565b610721846105fc565b81016020851015610730578190505b61074461073c856105fc565b8301826106e3565b50505b505050565b600082821c905092915050565b600061076a6000198460080261074c565b1980831691505092915050565b60006107838383610759565b9150826002028217905092915050565b61079c8261041d565b67ffffffffffffffff8111156107b5576107b4610237565b5b6107bf82546105b6565b6107ca828285610706565b600060209050601f8311600181146107fd57600084156107eb578287015190505b6107f58582610777565b86555061085d565b601f19841661080b866105e7565b60005b828110156108335784890151825560018201915060208501945060208101905061080e565b86831015610850578489015161084c601f891682610759565b8355505b6001600288020188555050505b50505050505056fea26469706673582212207dafa49677844fe2511a2e618cc409e47ab17ac2227a7746f397e9e9f4c01bc064736f6c63430008130033",
  "immutableReferences": {},
  "source": "//SDPX-License-Identifier: MIT\r\npragma solidity ^0.8.19;\r\n\r\ncontract ToDoList{\r\n    uint public taskCount = 0;\r\n\r\n    // new structure fo my individual tasks\r\n    struct Task{\r\n        uint id;\r\n        string content;\r\n        bool completed;\r\n    }\r\n\r\n    mapping(uint => Task) public tasks;\r\n\r\n    constructor() public{\r\n        createTask(\"Welcome to ToDoChain App !\");\r\n    }\r\n\r\n    function createTask(string memory _content) public{\r\n        taskCount++;\r\n        tasks[taskCount] = Task(taskCount,_content,false);\r\n    }\r\n}",
  "sourcePath": "C:\\Users\\TENSH_KKT\\Documents\\ToDoChain\\contracts\\ToDoList.sol",
  "compiler": {
    "name": "solc",
    "version": "0.8.19+commit.7dd6d404.Emscripten.clang"
  },
  "schemaVersion": "3.4.14",
  "updatedAt": "2023-06-29T17:49:49.667Z",
  "networkType": "ethereum",
  "devdoc": {
    "kind": "dev",
    "methods": {},
    "version": 1
  },
  "userdoc": {
    "kind": "user",
    "methods": {},
    "version": 1
  }
}